{
  "address": "0x93608bA798BEE9e22dbfbF0250c6583F93be472A",
  "abi": [
    {
      "inputs": [
        {
          "internalType": "address",
          "name": "_baseToken",
          "type": "address"
        },
        {
          "internalType": "address",
          "name": "_quoteToken",
          "type": "address"
        },
        {
          "internalType": "uint256",
          "name": "_priceRatio",
          "type": "uint256"
        }
      ],
      "stateMutability": "nonpayable",
      "type": "constructor"
    },
    {
      "anonymous": false,
      "inputs": [
        {
          "indexed": false,
          "internalType": "address",
          "name": "depositor",
          "type": "address"
        },
        {
          "indexed": false,
          "internalType": "address",
          "name": "token",
          "type": "address"
        },
        {
          "indexed": false,
          "internalType": "uint256",
          "name": "amount",
          "type": "uint256"
        }
      ],
      "name": "Deposited",
      "type": "event"
    },
    {
      "anonymous": false,
      "inputs": [
        {
          "indexed": true,
          "internalType": "address",
          "name": "previousOwner",
          "type": "address"
        },
        {
          "indexed": true,
          "internalType": "address",
          "name": "newOwner",
          "type": "address"
        }
      ],
      "name": "OwnershipTransferred",
      "type": "event"
    },
    {
      "anonymous": false,
      "inputs": [
        {
          "indexed": false,
          "internalType": "address",
          "name": "returnToken",
          "type": "address"
        },
        {
          "indexed": false,
          "internalType": "address",
          "name": "sender",
          "type": "address"
        },
        {
          "indexed": false,
          "internalType": "uint256",
          "name": "amountTo",
          "type": "uint256"
        }
      ],
      "name": "Swaped",
      "type": "event"
    },
    {
      "inputs": [],
      "name": "baseToken",
      "outputs": [
        {
          "internalType": "address",
          "name": "",
          "type": "address"
        }
      ],
      "stateMutability": "view",
      "type": "function"
    },
    {
      "inputs": [
        {
          "internalType": "address",
          "name": "_tokenAddress",
          "type": "address"
        },
        {
          "internalType": "uint256",
          "name": "_amount",
          "type": "uint256"
        }
      ],
      "name": "deposit",
      "outputs": [],
      "stateMutability": "nonpayable",
      "type": "function"
    },
    {
      "inputs": [],
      "name": "owner",
      "outputs": [
        {
          "internalType": "address",
          "name": "",
          "type": "address"
        }
      ],
      "stateMutability": "view",
      "type": "function"
    },
    {
      "inputs": [],
      "name": "priceRatio",
      "outputs": [
        {
          "internalType": "uint256",
          "name": "",
          "type": "uint256"
        }
      ],
      "stateMutability": "view",
      "type": "function"
    },
    {
      "inputs": [],
      "name": "priceRatioDecimal",
      "outputs": [
        {
          "internalType": "uint8",
          "name": "",
          "type": "uint8"
        }
      ],
      "stateMutability": "view",
      "type": "function"
    },
    {
      "inputs": [],
      "name": "quoteToken",
      "outputs": [
        {
          "internalType": "address",
          "name": "",
          "type": "address"
        }
      ],
      "stateMutability": "view",
      "type": "function"
    },
    {
      "inputs": [],
      "name": "renounceOwnership",
      "outputs": [],
      "stateMutability": "nonpayable",
      "type": "function"
    },
    {
      "inputs": [
        {
          "internalType": "address",
          "name": "_tokenAddress",
          "type": "address"
        },
        {
          "internalType": "uint256",
          "name": "_amountFrom",
          "type": "uint256"
        }
      ],
      "name": "swap",
      "outputs": [],
      "stateMutability": "nonpayable",
      "type": "function"
    },
    {
      "inputs": [
        {
          "internalType": "address",
          "name": "newOwner",
          "type": "address"
        }
      ],
      "name": "transferOwnership",
      "outputs": [],
      "stateMutability": "nonpayable",
      "type": "function"
    },
    {
      "inputs": [
        {
          "internalType": "uint256",
          "name": "_priceRatio",
          "type": "uint256"
        }
      ],
      "name": "updatePriceRatio",
      "outputs": [],
      "stateMutability": "nonpayable",
      "type": "function"
    }
  ],
  "transactionHash": "0x53319d147510c0e7485a5ed834af53cf1094b40a1407440bd276c346156b286c",
  "args": [
    "0xA190047F72248C6A8F01fCD7a5bCb95E618D5270",
    "0xc793a39d29F50a3D2e986a4764127411d7124DcD",
    2
  ],
  "numDeployments": 2,
  "solcInputHash": "76559938b6ad03d7664f3f2830db49d6",
  "bytecode": "0x60806040526000805460ff60a01b1916600960a01b17905534801561002357600080fd5b50604051610f3b380380610f3b833981016040819052610042916100ef565b61004b33610083565b600180546001600160a01b039485166001600160a01b031991821617909155600280549390941692169190911790915560035561012b565b600080546001600160a01b038381166001600160a01b0319831681178455604051919092169283917f8be0079c531659141344cd1fd0a4f28419497f9722a3daafe3b4186f6b6457e09190a35050565b80516001600160a01b03811681146100ea57600080fd5b919050565b60008060006060848603121561010457600080fd5b61010d846100d3565b925061011b602085016100d3565b9150604084015190509250925092565b610e018061013a6000396000f3fe608060405234801561001057600080fd5b506004361061009e5760003560e01c80638da5cb5b116100665780638da5cb5b1461012d578063c55dae631461013e578063d004f0f714610151578063d8bd926014610164578063f2fde38b1461017757600080fd5b806302af4827146100a35780630aa2f420146100ce578063217a4b70146100e557806347e7ef2414610110578063715018a614610125575b600080fd5b6000546100b790600160a01b900460ff1681565b60405160ff90911681526020015b60405180910390f35b6100d760035481565b6040519081526020016100c5565b6002546100f8906001600160a01b031681565b6040516001600160a01b0390911681526020016100c5565b61012361011e366004610aa8565b61018a565b005b610123610266565b6000546001600160a01b03166100f8565b6001546100f8906001600160a01b031681565b61012361015f366004610aa8565b61029c565b610123610172366004610af4565b610517565b610123610185366004610a8d565b610546565b60015482906001600160a01b03808316911614806101b557506002546001600160a01b038281169116145b6102015760405162461bcd60e51b8152602060048201526018602482015277151bdad95b881859191c995cdcc81a5cc81a5b9d985b1a5960421b60448201526064015b60405180910390fd5b826102176001600160a01b0382163330866105e1565b604080513381526001600160a01b03861660208201529081018490527f8752a472e571a816aea92eec8dae9baf628e840f4929fbcc2d155e6233ff68a79060600160405180910390a150505050565b6000546001600160a01b031633146102905760405162461bcd60e51b81526004016101f890610b7f565b61029a6000610652565b565b60015482906001600160a01b03808316911614806102c757506002546001600160a01b038281169116145b61030e5760405162461bcd60e51b8152602060048201526018602482015277151bdad95b881859191c995cdcc81a5cc81a5b9d985b1a5960421b60448201526064016101f8565b6000821161035e5760405162461bcd60e51b815260206004820152601f60248201527f5472616e7366657220616d6f756e7420657863656564732062616c616e63650060448201526064016101f8565b60015460009081906001600160a01b038681169116148015610395576001546002546001600160a01b0391821694501691506103ac565b6002546001546001600160a01b0391821694501691505b600061049a846001600160a01b031663313ce5676040518163ffffffff1660e01b815260040160206040518083038186803b1580156103ea57600080fd5b505afa1580156103fe573d6000803e3d6000fd5b505050506040513d601f19601f820116820180604052508101906104229190610b0d565b846001600160a01b031663313ce5676040518163ffffffff1660e01b815260040160206040518083038186803b15801561045b57600080fd5b505afa15801561046f573d6000803e3d6000fd5b505050506040513d601f19601f820116820180604052508101906104939190610b0d565b88856106a2565b90506104b16001600160a01b0385163330896105e1565b6104c56001600160a01b03841633836107e7565b604080516001600160a01b03851681523360208201529081018290527ff0aedcee50ce0ca8bb3067924d5ed38a062325eaf2a37cd325e162cee44f37379060600160405180910390a150505050505050565b6000546001600160a01b031633146105415760405162461bcd60e51b81526004016101f890610b7f565b600355565b6000546001600160a01b031633146105705760405162461bcd60e51b81526004016101f890610b7f565b6001600160a01b0381166105d55760405162461bcd60e51b815260206004820152602660248201527f4f776e61626c653a206e6577206f776e657220697320746865207a65726f206160448201526564647265737360d01b60648201526084016101f8565b6105de81610652565b50565b6040516001600160a01b038085166024830152831660448201526064810182905261064c9085906323b872dd60e01b906084015b60408051601f198184030181529190526020810180516001600160e01b03166001600160e01b03199093169290921790915261081c565b50505050565b600080546001600160a01b038381166001600160a01b0319831681178455604051919092169283917f8be0079c531659141344cd1fd0a4f28419497f9722a3daafe3b4186f6b6457e09190a35050565b6000806106af8686610d28565b90506000831561073e5760008260000b1315610705576003546000546106df90600160a01b900460ff1684610bb4565b6106ea90600a610c5c565b6106f49087610d09565b6106fe9190610bf7565b90506107dd565b61070e82610d95565b61071990600a610c5c565b6003546107269190610d09565b6000546106ea90600160a01b900460ff16600a610c5c565b6000805461075690600160a01b900460ff1684610d28565b60000b13156107985760005461077690600160a01b900460ff1683610d28565b61078190600a610c5c565b60035461078e9087610d09565b6106fe9190610d09565b6000546107af90600160a01b900460ff1683610d28565b6107b890610d95565b6107c390600a610c5c565b6003546107d09087610d09565b6107da9190610bf7565b90505b9695505050505050565b6040516001600160a01b03831660248201526044810182905261081790849063a9059cbb60e01b90606401610615565b505050565b6000610871826040518060400160405280602081526020017f5361666545524332303a206c6f772d6c6576656c2063616c6c206661696c6564815250856001600160a01b03166108ee9092919063ffffffff16565b805190915015610817578080602001905181019061088f9190610ad2565b6108175760405162461bcd60e51b815260206004820152602a60248201527f5361666545524332303a204552433230206f7065726174696f6e20646964206e6044820152691bdd081cdd58d8d9595960b21b60648201526084016101f8565b60606108fd8484600085610907565b90505b9392505050565b6060824710156109685760405162461bcd60e51b815260206004820152602660248201527f416464726573733a20696e73756666696369656e742062616c616e636520666f6044820152651c8818d85b1b60d21b60648201526084016101f8565b6001600160a01b0385163b6109bf5760405162461bcd60e51b815260206004820152601d60248201527f416464726573733a2063616c6c20746f206e6f6e2d636f6e747261637400000060448201526064016101f8565b600080866001600160a01b031685876040516109db9190610b30565b60006040518083038185875af1925050503d8060008114610a18576040519150601f19603f3d011682016040523d82523d6000602084013e610a1d565b606091505b5091509150610a2d828286610a38565b979650505050505050565b60608315610a47575081610900565b825115610a575782518084602001fd5b8160405162461bcd60e51b81526004016101f89190610b4c565b80356001600160a01b0381168114610a8857600080fd5b919050565b600060208284031215610a9f57600080fd5b61090082610a71565b60008060408385031215610abb57600080fd5b610ac483610a71565b946020939093013593505050565b600060208284031215610ae457600080fd5b8151801515811461090057600080fd5b600060208284031215610b0657600080fd5b5035919050565b600060208284031215610b1f57600080fd5b815160ff8116811461090057600080fd5b60008251610b42818460208701610d69565b9190910192915050565b6020815260008251806020840152610b6b816040850160208701610d69565b601f01601f19169190910160400192915050565b6020808252818101527f4f776e61626c653a2063616c6c6572206973206e6f7420746865206f776e6572604082015260600190565b60008160000b8360000b6000821282607f03821381151615610bd857610bd8610db5565b82607f19038212811615610bee57610bee610db5565b50019392505050565b600082610c1457634e487b7160e01b600052601260045260246000fd5b500490565b600181815b80851115610c54578160001904821115610c3a57610c3a610db5565b80851615610c4757918102915b93841c9390800290610c1e565b509250929050565b600061090060ff841683600082610c7557506001610d03565b81610c8257506000610d03565b8160018114610c985760028114610ca257610cbe565b6001915050610d03565b60ff841115610cb357610cb3610db5565b50506001821b610d03565b5060208310610133831016604e8410600b8410161715610ce1575081810a610d03565b610ceb8383610c19565b8060001904821115610cff57610cff610db5565b0290505b92915050565b6000816000190483118215151615610d2357610d23610db5565b500290565b600081810b83820b8281128015607f19830184121615610d4a57610d4a610db5565b81607f018313811615610d5f57610d5f610db5565b5090039392505050565b60005b83811015610d84578181015183820152602001610d6c565b8381111561064c5750506000910152565b600081810b607f19811415610dac57610dac610db5565b60000392915050565b634e487b7160e01b600052601160045260246000fdfea2646970667358221220a0a6939336d222a1d9c8a0ebf8aa22e1e7c5304aa58fe64fb6c428ed9f3f3c7764736f6c63430008050033",
  "devdoc": {
    "kind": "dev",
    "methods": {
      "owner()": {
        "details": "Returns the address of the current owner."
      },
      "renounceOwnership()": {
        "details": "Leaves the contract without owner. It will not be possible to call `onlyOwner` functions anymore. Can only be called by the current owner. NOTE: Renouncing ownership will leave the contract without an owner, thereby removing any functionality that is only available to the owner."
      },
      "transferOwnership(address)": {
        "details": "Transfers ownership of the contract to a new account (`newOwner`). Can only be called by the current owner."
      }
    },
    "version": 1
  },
  "userdoc": {
    "kind": "user",
    "methods": {},
    "version": 1
  },
  "storageLayout": {
    "storage": [
      {
        "astId": 7,
        "contract": "contracts/Swap.sol:Swap",
        "label": "_owner",
        "offset": 0,
        "slot": "0",
        "type": "t_address"
      },
      {
        "astId": 1349,
        "contract": "contracts/Swap.sol:Swap",
        "label": "priceRatioDecimal",
        "offset": 20,
        "slot": "0",
        "type": "t_uint8"
      },
      {
        "astId": 1351,
        "contract": "contracts/Swap.sol:Swap",
        "label": "baseToken",
        "offset": 0,
        "slot": "1",
        "type": "t_address"
      },
      {
        "astId": 1353,
        "contract": "contracts/Swap.sol:Swap",
        "label": "quoteToken",
        "offset": 0,
        "slot": "2",
        "type": "t_address"
      },
      {
        "astId": 1355,
        "contract": "contracts/Swap.sol:Swap",
        "label": "priceRatio",
        "offset": 0,
        "slot": "3",
        "type": "t_uint256"
      }
    ],
    "types": {
      "t_address": {
        "encoding": "inplace",
        "label": "address",
        "numberOfBytes": "20"
      },
      "t_uint256": {
        "encoding": "inplace",
        "label": "uint256",
        "numberOfBytes": "32"
      },
      "t_uint8": {
        "encoding": "inplace",
        "label": "uint8",
        "numberOfBytes": "1"
      }
    }
  }
}